:020000040000FA
:03000000020800F3
:10080000787FE4F6D8FD7581200208470208FAE4F3
:1008100093A3F8E493A34003F68001F208DFF48089
:1008200029E493A3F85407240CC8C333C4540F44D9
:1008300020C8834004F456800146F6DFE4800B01B3
:1008400002040810204080900933E47E019360BCCC
:10085000A3FF543F30E509541FFEE493A360010E4B
:10086000CF54C025E060A840B8E493A3FAE493A372
:10087000F8E493A3C8C582C8CAC583CAF0A3C8C593
:1008800082C8CAC583CADFE9DEE780BEAB071208AB
:10089000E0C2001209101208E0ED139200120915CF
:1008A000EDA2E1920012091A540324FF92001209EA
:1008B0001FEDA2E29200120924EB13920012092903
:1008C000EBA2E1920012092E1208E0D200120910E8
:1008D0001208E0C2001209101208E0D2000209104A
:1008E000E4FFFED3EF9509E5086480F8EE64809894
:1008F00050070FBF00010E80EA2243E340E4FDFFF2
:1009000012088C0D7F0312088C7F0112088C80FE68
:10091000A200928722A200928322A200928422A2A5
:1009200000928522A200928622A200928122A20039
:080930009282220208138800E4
:00000001FF
