:020000040000FA
:10000000020F778F7D12133DC3EF950FFDEE950E16
:10001000FCD3ED94C8EC94004007437D408E0E8FD6
:100020000FAF7D2275A45275D40F22021003C2DED9
:10003000D2DE22020EE08F618D62E562600575629C
:10004000FF8003E4F5627F801200038F63E56104A3
:10005000FF1212BC8F64E4FF74652FF8A6620FBF15
:1000600010F6E4F575F576FB7A0079637D140212DB
:010070003B54
:10007300021407020E000001100001110002120019
:1000830000C109C10CC10DC10AC10B01080001095E
:1000930000010A00010D00020B00001029000000FE
:1000A3000000000000000000000000000061A0014B
:1000B300D600000000000000000000000000000067
:1000C300000000000000000000000000000000002D
:1000D300000000000000000000000000000000001D
:1000E300000000000000000000000000000000000D
:1000F30000000000000000000000000000000000FD
:1001030000000000000000000000000000000000EC
:1001130000000000000000000000000000000000DC
:1001230000000000000000000000000000000000CC
:1001330000000000000000000000000000000000BC
:1001430000000000000000000000000000000000AC
:10015300000000000000000000000000000000009C
:10016300000000000000000000000000000000008C
:10017300000000000000000000000000000000007C
:10018300000000000000000000000000000000006C
:10019300000000000000000000000000000000005C
:1001A300000000000000000000000000000000004C
:1001B300000000000000000000000000000000003C
:1001C300000000000000000000000000000000002C
:1001D300000000000000000000000000000000001C
:1001E300000000000000000000000000000000000C
:1001F30000000000000000000000000000000000FC
:1002030000000000000000000000000000000000EB
:1002130000000000000000000000000000000000DB
:1002230000000000000000000000000000000000CB
:1002330000000000000000000000000000000000BB
:1002430000000000000000000000000000000000AB
:100253000061A00014000000000000000000000086
:10026300000000000000000000000000000000008B
:10027300000000000000000000000000000000007B
:10028300000000000000000000000000000000006B
:10029300000000000000000000000000000000005B
:1002A300000000000000000000000000000000004B
:1002B300000000000000000000000000000000003B
:1002C300000000000000000000000000000000002B
:1002D300000000000000000000000000000000001B
:1002E300000000000000000000000000000000000B
:1002F30000000000000000000000000000000000FB
:1003030000000000000000000000000000000000EA
:1003130000000000000000000000000000000000DA
:1003230000000000000000000000000000000000CA
:1003330000000000000000000000000000000000BA
:1003430000000000000000000000000000000000AA
:10035300000000000000000000000000000000009A
:10036300000000000000000000000000000000008A
:10037300000000000000000000000000000000007A
:10038300000000000000000000000000000000006A
:10039300000000000000000000000000000000005A
:1003A300000000000000000000000000000000004A
:1003B300000000000000000000000000000000003A
:1003C300000000000000000000000000000000002A
:1003D300000000000000000000000000000000001A
:1003E300000000000000000000000000000000000A
:1003F30000000000005001C60000000000000000E3
:1004030000000000000000005001B60000000000E2
:100413000000000000000000000000013D00500348
:100423007600000000000000000000000000000053
:1004330000024200000246000000E56E2462F8E676
:10044300056E22785F3007027862E475F001120AC4
:100453008602088F2000EB7F2ED2008018EF540F06
:100463002490D43440D4FF30040BEF24BFB41A00DB
:1004730050032461FFE56F6002156F0572E572702A
:1004830002057130070D785FE475F001120A86EFFB
:10049300020A740214B37403D2078003E4C207F59B
:1004A3006E8B5F8A608961E4F56FF571F572E56FB4
:1004B30060077F2012047880F57570FFC201C200C7
:1004C300C202C203C205C206C208120446FF700D6F
:1004D3003007057F00120489AF72AE7122B4255F25
:1004E300C2D5C204120446FF24D0B40A00501A75C0
:1004F300F00A786F30D50508B6FF0106C6A426F6C4
:1005030020D5047002D20380D924CFB41A00EF504F
:1005130004C2E5D204020689D20180C6D20080C09B
:10052300D20280BCD2D580BAD20580B47F20120417
:10053300782002077401B56F0040F112043DFF12E9
:1005430004780204B1D208D206809512043DFB124E
:10055300043DFA12043DF94A4B7006795A7A077B37
:10056300FF20022EE56F602A7E008E8275830012C3
:1005730008A860060EEE657070F0C2D5EBC0E0EA25
:10058300C0E0E9C0E0EE1206D0D0E0F9D0E0FAD046
:10059300E0FB12088FFF60AAEBC0E0EAC0E0E9C00D
:1005A300E0120478D0E02401F9D0E03400FAD0E07E
:1005B300FBE5700460DCD570D980877BFF7A067910
:1005C300CCD202809C791080027908C206C20880CE
:1005D30008D2D5790A8004790AC2D5E5700470027D
:1005E300F570E4FAFDFEFF12043DFC7B08200113C5
:1005F30012043DFD7B1030000A12043DFE12043D3F
:10060300FF7B20EC3382D592D55013C3E430000630
:100613009FFFE49EFEE42001039DFDE49CFCE4CBEC
:10062300F8C201EC700CCFCECDCCE824F8F870F30F
:100633008017C3EF33FFEE33FEED33FDEC33FCEBFA
:1006430033FB994002FB0FD8E9EB300105F8D0E00A
:10065300C448B201C0E00AEC4D4E4F78207B0070D5
:10066300C2EAB5700040BCC0E01206D2D0F0D0E0C0
:10067300200104C4C0E0C4B201C0F0120461D0F090
:10068300D5F0EB0204B1120A96054E5305C858057E
:100693001F4C051B4205CC4F05D44405D4490534F2
:1006A3004305DA5505BE4605BE4505BE47077A50E4
:1006B30005232D05272E054A2B052B230548200747
:1006C300632A04E348000005423F3F3F00790AA242
:1006D300D5200314300509B910020404B908010434
:1006E300A2D52006025001042002689202B56F00D1
:1006F3005034C0E07F203003197F30A202720672AB
:1007030005500F120729C202C206C205C2087F3074
:10071300800F300503E9C0E0120478300503D0E010
:10072300F9D0E0B56FCC3005177F30B9100C120447
:10073300787F583004077F788003B9080312047860
:100743003002057F2D0204787F202008F87F2B20BC
:1007530006F322920280CF286E756C6C2900D201B9
:1007630012043D3001F8C201786F30D50108F6025A
:1007730004E32D5043495812043D2403B4050040BB
:1007830001E490077593120469743A120469D20361
:10079300756F040205C8E709F608DFFA8046E70922
:1007A300F208DFFA803E88828C83E709F0A3DFFA40
:1007B3008032E309F608DFFA8078E309F208DFFA0A
:1007C300807088828C83E309F0A3DFFA80648982D6
:1007D3008A83E0A3F608DFFA805889828A83E0A33C
:1007E300F208DFFA804C80D280FA80C680D4806918
:1007F30080F28033801080A680EA809A80A880DA15
:1008030080E280CA803389828A83ECFAE493A3C8A6
:10081300C582C8CCC583CCF0A3C8C582C8CCC58368
:10082300CCDFE9DEE7800D89828A83E493A3F608AF
:10083300DFF9ECFAA9F0EDFB2289828A83ECFAE076
:10084300A3C8C582C8CCC583CCF0A3C8C582C8CC15
:10085300C583CCDFEADEE880DB89828A83E493A365
:10086300F208DFF980CC88F0EF60010E4E60C38898
:10087300F0ED2402B4040050B9F582EB2402B40471
:100883000050AF23234582239007E973BB010689F8
:10089300828A83E0225002E722BBFE02E32289829E
:1008A3008A83E49322BB010CE58229F582E5833A2E
:1008B300F583E0225006E92582F8E622BBFE06E92D
:1008C3002582F8E222E58229F582E5833AF583E47D
:1008D3009322EF8DF0A4A8F0CF8CF0A428CE8DF056
:1008E300A42EFE22BC000BBE0029EF8DF084FFADC9
:1008F300F022E4CCF875F008EF2FFFEE33FEEC3373
:10090300FCEE9DEC984005FCEE9DFE0FD5F0E9E46E
:10091300CEFD22EDF8F5F0EE8420D21CFEADF0758D
:10092300F008EF2FFFED33FD4007985006D5F0F2A6
:1009330022C398FD0FD5F0EA2275F008758200EF07
:100943002FFFEE33FECD33CDCC33CCC58233C582FE
:100953009BED9AEC99E58298400CF582EE9BFEEDB7
:100963009AFDEC99FC0FD5F0D6E4CEFBE4CDFAE486
:10097300CCF9A88222B800C1B90059BA002DEC8B7A
:10098300F084CFCECDFCE5F0CBF97818EF2FFFEE56
:1009930033FEED33FDEC33FCEB33FB10D70399400F
:1009A30004EB99FB0FD8E5E4F9FA227818EF2FFF4F
:1009B300EE33FEED33FDEC33FCC933C910D7059B91
:1009C300E99A4007EC9BFCE99AF90FD8E0E4C9FAED
:1009D300E4CCFB2275F010EF2FFFEE33FEED33FD79
:1009E300CC33CCC833C810D7079BEC9AE899400A9C
:1009F300ED9BFDEC9AFCE899F80FD5F0DAE4CDFB1A
:100A0300E4CCFAE4C8F922EB9FF5F0EA9E42F0E960
:100A13009D42F0E89C45F022EC8EF0A4CCC5F0CCCE
:100A2300CDF8EFA4CEC5F02DFDE43CFCE8A42EC820
:100A3300C5F03DFDE43CFCEFA4FFE5F028FEE43DFA
:100A4300FDE43CFC22EF4E6012EF60010EEDBB01B2
:100A53000B89828A83F0A3DFFCDEFA2289F0500738
:100A6300F709DFFCA9F022BBFEFCF309DFFCA9F0C8
:100A730022BB010689828A83F0225002F722BBFE41
:100A830001F322FAE6FB0808E6F925F0F618E6CAB0
:100A93003AF622D083D082F8E493701274019370F3
:100AA3000DA3A393F8740193F5828883E47374020E
:100AB300936860EFA3A3A380DF9001B4E4F0A304E1
:100AC300F0E4F522F523F556F557F53EF53FF540ED
:100AD300F541F54AF54BF552F553F548F549F54C13
:100AE300F54DF525F5261213AAD299D298C2921282
:100AF300130712115FE523452270F4E55EB409067E
:100B03007522007523017BFF7A1179B012049F12BD
:100B130013F68F5E7BFF7A1179C3855E6212049FA1
:100B23007BFF7A1179DA855E6212049FD3E55794CD
:100B330078E5566480948040190553E553700205A7
:100B430052120E47E4F548F549F525F526F5567595
:100B530057787562FF7563117564F2855E657B0076
:100B63007A0079241204997562FF7563117564F52F
:100B7300855E657B007A00793D120499E528C4F807
:100B8300540FC868FFE527C454F048FE74142FF9C6
:100B930074003EFA7B01C0031B8B627563007564AE
:100BA3003DD003121062E53FC4F8540FC868FFE557
:100BB3003EC454F048FE74D62FF974013EFA7B010B
:100BC300C0031B8B62756300756424D0031210622B
:100BD30020920B7B007A007929AD571210D3309203
:100BE3000B7B017A037976AD571210D375620075CA
:100BF30063007564247B007A0079291210627562A0
:100C03000075630075643D7B017A03797612106287
:100C13007B007A0079291213958E258F267B017A22
:100C23000379761213958E448F45D3E5269410E508
:100C3300256480948040347E007F107D007B007AA1
:100C4300007929120A487562007563007564247B74
:100C5300007A007929121062053FE53F7002053ED4
:100C630074082557F557E43556F556D3E5459410E2
:100C7300E544648094805003020AF27E007F107D75
:100C8300007B017A037976120A4875620075630066
:100C930075643D7B017A037976121062740225280C
:100CA300F528E43527F5277408253AF53AE435396C
:100CB300F539020AF28F638E628D618C60E47F994D
:100CC300FEFDFCAB63AA62A961A860D3120A0A50B5
:100CD30006756401020D81E47F797E0AFDFCAB6336
:100CE300AA62A961A860C3120A0A4014E47FA57E20
:100CF3000BFDFCA860D3120A0A5005756402807EBE
:100D0300E47F4F7E09FDFCAB63AA62A961A860C3BF
:100D1300120A0A4014E47F7B7E0AFDFCA860D3120A
:100D23000A0A50057564038055E47FDC7E05FDFCEB
:100D3300AB63AA62A961A860C3120A0A4014E47FE4
:100D4300087E07FDFCA860D3120A0A5005756404E7
:100D5300802CE47F267E07FDFCAB63AA62A961A811
:100D630060C3120A0A4014E47F527E08FDFCA860A7
:100D7300D3120A0A50057564058003E4F564AF6471
:100D8300228F658D668B67AB68AA69A96A12088F83
:100D93007003020E46F56BC3648094A04009D3E54B
:100DA3006B648094FE4003756B20E566D3947840B2
:100DB30002807CAF6BEF3395E0FE75F064E567A4CA
:100DC3002FF582E5F03EF583E582249FF582E583E6
:100DD3003414F583E493F9E566131313541F25655F
:100DE300FDF8C000E6FA08E6FBE5665407FCE47E7E
:100DF300FFA804088005CEC313CE13D8F9F4FFEE81
:100E0300F45AFEEB5FD000A60608F6A805C000E67C
:100E1300FA08E6FBE9FEE4A804088005CEC313CE76
:100E230013D8F9FFEA4EFEEB4FD000A60608F6747E
:100E330001256AF56AE43569F56974062566F56680
:100E4300020D8A221213AA20924585524A85534BDA
:100E5300C3E54B953FE53E6480F8E54A64809850CE
:100E63002EE54BC4F8540FC868FFE54AC454F04854
:100E7300FE74D62FF974011210BA74082549F54986
:100E8300E43548F548054BE54B70C5054A80C1304C
:100E9300924585524A85534BC3E54B9528E5276414
:100EA30080F8E54A648098502EE54BC4F8540FC887
:100EB30068FFE54AC454F048FE74142FF974001215
:100EC30010BA74082549F549E43548F548054BE55A
:100ED3004B70C5054A80C1E4F522F52322C0E0C06A
:100EE300F0C083C082C0D075D000C000C001C00272
:100EF300C003C004C005C006C00775A720E5F854A9
:100F0300F0F4440F52F8AF9BEF30E34DE508603146
:100F1300E5A120E02C300A13850C82850B83E5A321
:100F2300F0050CE50C7007050B800385A35DD50860
:100F33000D300C05300902D2FA1213BE8003850866
:100F43000AE509601430F911300B09A80DE2F5A385
:100F5300050D800375A3001509D007D006D005D071
:100F630004D003D002D001D000D0D0D082D083D01F
:100F7300F0D0E032787FE4F6D8FD75818F020FBEA2
:100F8300021417E493A3F8E493A34003F68001F259
:100F930008DFF48029E493A3F85407240CC8C3336F
:100FA300C4540F4420C8834004F456800146F6DF3E
:100FB300E4800B0102040810204080900076E47E58
:100FC300019360BCA3FF543F30E509541FFEE49333
:100FD300A360010ECF54C025E060A840B8E493A3FA
:100FE300FAE493A3F8E493A3C8C582C8CAC583CA25
:100FF300F0A3C8C582C8CAC583CADFE9DEE780BEDD
:10100300C0E0C0F0C083C082C0D075D000C000C0B3
:1010130001C002C003C004C005C006C00753C87F97
:1010230053C8FBE510B401127510027F0085115CF3
:101033007B02E4FDFC12110D800AE510B40305C226
:10104300A6751000D007D006D005D004D003D00277
:10105300D001D000D0D0D082D083D0F0D0E0328B7A
:101063005F8A6089618B658A668967AB5F0561E525
:1010730061AA607002056014F912088F70ED74FFA5
:101083002561F56174FF3560F560AB620564E56465
:10109300AA637002056314F912088FFFAB5F056141
:1010A300E561AA607002056014F9EF120A7470DA40
:1010B300AB65AA66A967223EFA7B0178B67C017DFF
:1010C300017E007F101208697B017A0179B6AD4970
:1010D3008B608A6189628D63E4F5647F8012144EAC
:1010E3007F8085606885616985626AAB647D04126F
:1010F3000D84E5632564FF7B007A0079801211F982
:101103000564E564C3940840D222855C08855C09C4
:10111300855C0A8F0D8C0B8D0CEB13920AEBA2E10D
:10112300920BAFA775A720200D031213E5439A0472
:1011330053F80F539BEF439A08300C05300902C252
:10114300FA30F915E5096011300B09A80DE2F5A392
:10115300050D8003E4F5A315098FA722D2EC30ED2A
:10116300FDC2EDAFBDAEBE7C0C7DE4120A1BE4FBF9
:101173007A04F9F8120978120CB88F5FE55FB402AC
:101183000BE553155370021552120E47E55FB40475
:101193000B0553E55370020552120E47208205E4F6
:1011A300F522F523208305B292120E47220A456EDB
:1011B300746572206368617261637465723A2000BA
:1011C3000A43686172616374657220656E74657247
:1011D30065643A202563000A202020202056616C94
:1011E300756520696E204865783A20256278002568
:1011F3006300256278008F658B668A6789687F80C4
:101203001200038F69E56504FF1212BC8F6AE4FFC5
:10121300AB66AA67A9688F827583001208A8FE745B
:101223006B2FF8A6060FBF10E7E4F57BF57CFB7A7E
:101233000079697D1402123B8B7D8A7E897FE510DC
:1012430070FC7510018D11E4FFEFC39D5018AB7D49
:10125300AA7EA97F8F827583001208A8FE74002FCF
:10126300F8EEF20F80E3AFA7E4F5A775CFFF75CED5
:10127300F4D2A643C8048FA72285A75E12145A127C
:10128300002412146412146E1214B71214341213BD
:101293005312148212136912137F12132412147837
:1012A30012002E12149312149A1214A11214411242
:1012B30014BB1214A8855EA722EF540FC454F0FE8A
:1012C300EF54F0C4540F4EFF543325E025E0FEEFF6
:1012D30054CC1313543F4EFF545525E0FEEF54AA4C
:1012E300C3134EFF22AB07AA0612133D8F828E83D0
:1012F30012133DC3EF9582FFEE9583FEC3EF9BEE82
:101303009A40ED2212133D8E5F8F6012133DC3EF9F
:101313009560FFEE955FFEC3EF941EEE940040EBE5
:1013230022E59154045391FB7595F87594067593D2
:10133300F8759206439104429122AFA775A7105303
:10134300E67FAD13AC1243E6808FA7AE04AF052250
:1013530075B301E4F5B275BB0D75DF3F75BC087558
:10136300B90143E88022AF885388AF758C01758D2E
:1013730096EF5440FEEF54104E428822E5C85404C1
:1013830053C8FB75CFFF75CE3475CBFF75CA344296
:10139300C822E4FFFE12088F600C0FEF70010E09E4
:1013A300E970F20A80EF22E4F560E4FDAF60120019
:1013B300360560E560C3948040F022751003AFA743
:1013C300E4F5A775CFFF75CEFC43C8048FA722BFF2
:1013D3000A083099FDC29975990D3099FDC2998F0C
:1013E3009922E5A1A2E6920CE5F8540C24FF920998
:1013F300D20D22100E0B1214AFBF0D027F0A02147E
:10140300B3AF1422C0E053917F0513E513700205B7
:1014130012D0E03212127CD2A2D2AF121426120AD8
:10142300BC80FEC2A6D2B47F0A7E001212E8021369
:10143300AAE4F5A775E34075E10375E2032275A2FB
:101443000B43A14053F8F343F80122E4FEEF2EF8D7
:10145300E4F60EBE10F722E4F5A77597DE7597AD97
:101463002275A57375F27F75D58E2275A64875A76B
:101473002075CC0822758E0A75892243885022E490
:10148300F5A9E5A930E7FB223098FDAF99C2982270
:1014930053F77F75DA422253F77F75DB422253F706
:1014A3007F75DC422275E68075A8E02212148B2238
:1014B3001213D222759C1022439810220020505000
:1014C30020C060601040000000000000702070F831
:1014D30010F830F870700000080080707070F070C1
:1014E300E0F8F8708870388880888870F070F07839
:1014F300F88888888888F870007020004000800091
:101503000800300080201080600000000000000010
:1015130040000000000000302060000000000000D8
:101523000020505078C89020202020200000000088
:101533008860881030804008888860601000408888
:1015430008888888908080888820109080D8888830
:101553008888888020888888888808400010500000
:1015630020008000080048788000008020000000F0
:101573000000000040000000000000402010400078
:1015830000000000002050F88010A0404010A82068
:10159300000000089820082050F0801088886060C0
:1015A30020F820080888888088808080882010A000
:1015B30080A8C888888888802088888850881040B8
:1015C300801088001070B07068704088B0603090F0
:1015D30020D0B070F068B070E08888888888F840C0
:1015E3002010A800000000000020005070204000E0
:1015F300401070F800F80010A82010109008F02098
:1016030070780000400010106888F08088F0F0B80F
:10161300F82010C080A8A888F088F070208888A8D7
:1016230020502040401000000008C8809888E088BF
:10163300C82010A020A8C8888898C88040888888B7
:10164300508810802008100000000000000000F8FF
:101653000840A8004010A82060000020C8202008EF
:10166300F80888408808606020F82020A8F888805F
:1016730088808088882010A08088988880A8A00807
:10168300208888A8502040402010000000788880DF
:1016930088F84078882010C020A88888F078807067
:1016A300408888A820782040201000000000000017
:1016B30000000050F098900020202020200060407F
:1016C30088204088108888408810602010004000DF
:1016D300A8888888908080888820909080888888CF
:1016E30080909008208850A8882080401010000027
:1016F3000088888888804008882090A0208888886F
:1017030080088008489850A85008404020100000E6
:101713000000000000200050201868001040000066
:10172300400060807070F87010707040706000400E
:10173300080080207088F070E0F8807088706088FE
:10174300F8888870806888F0207020508820F870AE
:10175300087000FC0078F0707870407088706090BA
:1017630070888870800880F0306820508870F83066
:1017730020600000000000000000000000000000E6
:101783000000000000000000000000000000000056
:101793000000000000000000000000000000000046
:1017A3000000000000000000000000000000000036
:1017B3000000000000000000000000000000000026
:1017C3000000000000000000000000000000000016
:0C17D3000000000000000000000000000A
:00000001FF
