:020000040000FA
:030000000209ED05
:0300730002095B24
:10080000E88FF0A4CC8BF0A42CFCE98EF0A42CFC97
:100810008AF0EDA42CFCEA8EF0A4CDA8F08BF0A415
:100820002DCC3825F0FDE98FF0A42CCD35F0FCEB74
:100830008EF0A4FEA9F0EB8FF0A4CFC5F02ECD3939
:10084000FEE43CFCEAA42DCE35F0FDE43CFC227530
:10085000F008758200EF2FFFEE33FECD33CDCC33A1
:10086000CCC58233C5829BED9AEC99E58298400C09
:10087000F582EE9BFEED9AFDEC99FC0FD5F0D6E4E7
:10088000CEFBE4CDFAE4CCF9A88222B800C1B900CD
:1008900059BA002DEC8BF084CFCECDFCE5F0CBF92E
:1008A0007818EF2FFFEE33FEED33FDEC33FCEB3326
:1008B000FB10D703994004EB99FB0FD8E5E4F9FA54
:1008C000227818EF2FFFEE33FEED33FDEC33FCC939
:1008D00033C910D7059BE99A4007EC9BFCE99AF9CC
:1008E0000FD8E0E4C9FAE4CCFB2275F010EF2FFF3B
:1008F000EE33FEED33FDCC33CCC833C810D7079BA5
:10090000EC9AE899400AED9BFDEC9AFCE899F80F07
:10091000D5F0DAE4CDFBE4CCFAE4C8F922EB9FF59C
:10092000F0EA9E42F0E99D42F0E89C45F022EC8E10
:10093000F0A4CCC5F0CCCDF8EFA4CEC5F02DFDE4ED
:100940003CFCE8A42EC8C5F03DFDE43CFCEFA4FF50
:10095000E5F028FEE43DFDE43CFC22C0E0C0F0C030
:1009600083C082C0D075D000C000C001C002C003E7
:10097000C004C005C006C00785A71F53917F75221C
:100980000B752384AF1EE4FCFDFEFBFA7901F8121F
:1009900008007B407A0D79037800120A79EF250967
:1009A000F509EE3508F50825E0FFE433FEE5232FD1
:1009B000F582E5223EF583E493F520740193F52159
:1009C00075A73085218485208585218985208A85A4
:1009D0001FA7D007D006D005D004D003D002D00185
:1009E000D000D0D0D082D083D0F0D0E032787FE475
:1009F000F6D8FD758124020A34020B40E493A3F873
:100A0000E493A34003F68001F208DFF48029E49325
:100A1000A3F85407240CC8C333C4540F4420C8831C
:100A20004004F456800146F6DFE4800B010204081E
:100A300010204080900AE2E47E019360BCA3FF5442
:100A40003F30E509541FFEE493A360010ECF54C06C
:100A500025E060A840B8E493A3FAE493A3F8E493F4
:100A6000A3C8C582C8CAC583CAF0A3C8C582C8CAFC
:100A7000C583CADFE9DEE780BEC2D5E830E70FB242
:100A8000D5E4C39BFBE49AFAE499F9E498F8EC30D6
:100A9000E717B2D5120AAF12088BE4C39BFBE49AA6
:100AA000FAE499F9E498F8800312088B30D50DE444
:100AB000C39FFFE49EFEE49DFDE49CFC2285A724E9
:100AC000120B50120B1C120B2E120B5A120B61122E
:100AD0000B68120B7C120B80120B6F120B768524A5
:100AE000A722140A000A0014001E00280032003C4D
:100AF00000460050005A0064011E05020800000074
:100B0000E4F591438E40C39FFFE49EF5938F92746A
:100B1000FFF595F59443E680759104227580FFE416
:100B2000F5A475F1FE75D401F5FE75FDFF227590F3
:100B3000FF75A51075F2FFE4F5D5F5EE75EDFF2212
:100B4000120ABD7F7A7E00120B00C2B4D2AF80FEC3
:100B5000E4F5A77597DE7597AD2275A720759C10F3
:100B600022E4F5A775E3402275A73075918122E450
:100B7000F5A775D18022E4F5A9F5A9227593812204
:100B8000E4F58822000000000000000000000000E2
:100B90000000000000000000000000000000000055
:100BA0000000000000000000000000000000000045
:100BB000000F00FF00FF00FF00FF00F80000000032
:100BC000000000000000000800000000000000001D
:100BD0000008000000000000000000000008000005
:100BE00000000000000000080000000000000000FD
:100BF00000000008000000000000000000080000E5
:100C000000000000000000000008000000000000DC
:100C100000000008000000000000000000000008C4
:100C200000000000000000000008000000000000BC
:100C300000000000000800000000000000000008A4
:100C4000000000000000000000000008000000009C
:100C5000000000000008000000000000000000008C
:100C60000008000000000000000000080000000074
:100C7000000000000000000800000000000000006C
:100C80000008000000000000000000000008000054
:100C9000000000000000000800000000000000004C
:100CA0000000000800000000000000000008000034
:100CB000000000000000000000080000000000002C
:100CC0000000000800000000000000000000000814
:100CD000000000000000000000080000000000000C
:100CE00000000000000800000000000000000008F4
:100CF00000000000000000000000000800000000EC
:100D000000000000000800000000000000000000DB
:100D100000080000000000000000000800000000C3
:100D200000000000000000080000000000000000BB
:100D300000080000000000000000000000080000A3
:100D4000000000000000000800000000000000009B
:100D50000000000800000000000000000008000083
:100D6000000000000000000000080000000000007B
:100D70000000000800000000000000000000000863
:040D8000000000006F
:00000001FF
